:02000000FD2BD6
:10069A00FF308312A0070318A10AFF30A107200A1E
:1006AA000319210A03190800F9308312A200000075
:1006BA00A20B5C2B602B00004D2B83168701910146
:1006CA00851448309000EE308312A9000230AA0047
:1006DA00F630A500FF30A6000230A7000030A800BF
:1006EA008312051D932B1430A4007930A300A30BA9
:1006FA007C2BA40B7C2B812B8312051D932B0130A1
:10070A00A7070318A80A0030A807033027062804F9
:10071A00031D912BA701A8010519912B270828046D
:10072A00031DDB2B2508A9070318AA0A2608AA070E
:10073A002A08803ADF0080305F02031DA62B323080
:10074A002902031CB42B83122A08803ADF00833063
:10075A005F02031DB22BB7302902031CBA2B831286
:10076A00A509A609A50A0319A60A83122A08A1003F
:10077A002908A0004D230330831287002A08A1000C
:10078A002908A0004D230C30831287002A08A100F3
:10079A002908A0004D230530831287002A08A100EA
:1007AA002908A0004D230A308312E02B27032804CE
:1007BA00031DE22B0F308700752B02302706280411
:1007CA00031D752B0F3087000730A4007D30A3006E
:1007DA00A30BED2BA40BED2B831287010D30A40084
:1007EA00FB30A300A30BF72BA40BF72BFC2B752BC9
:0407FA008301622BEA
:02400E00E4FFCD
:00000001FF
